:10000000740475F006A4F52085F02185D0227415BE
:1000100075F060A4F52385F02485D025741575F05E
:10002000008485D026746775F01484F52785F02840
:1000300085D02974372436D4F52A74372499D4F519
:030040002B80FE14
:10060000100000071001003610020003100300C0A4
:1006100010040041100500001006003700200018EB
:100620000021000000220000002300E00024000759
:10063000002500050026000500270005002800030E
:1006400000290000002A0073002B00362FFF000055
:00000001FF
