:100000007400700A752030600575203180FE74011F
:10001000600A752130700575213180FE7808740002
:100020002401D8FCF52275400874122401D540FB48
:10003000F5237420754120B5411CB4330575244562
:1000400080FE7524557812B8340280FE75408078A1
:0800500040B6450280FE80FE6F
:10060000100000071001002010020000100300017C
:10061000100400561005000010060058002000309D
:1006200000210030002200080023001A0024005599
:040630002FFF000098
:00000001FF
