:1004B90048656C6C6F20300A0048656C6C6F2031A0
:0204C9000A0027
:060464007B007A00792202
:10046A008B0A8A0B890CAB0AAA0BA90C12035F60D0
:10047A0016050CE50C7002050B14F912035FF599C9
:08048A003099FDC29980DF22C8
:10041900E4F508F509759850438920758DDDD28E6C
:100429007E007F107D007B007A00792212037875A7
:100439000DFF750E04750FB97B007A007922120041
:100449005F120464750DFF750E04750FC27B007A87
:0B04590000792212005F12046480C5CD
:030000000204CB2C
:0C04CB00787FE4F6D8FD75813102041939
:10035F00BB010689828A83E0225002E722BBFE029C
:09036F00E32289828A83E49322CF
:10000300E519240DF8E6051922780A300702780D60
:10001300E475F0011203E302035F2000EB7F2ED2AD
:10002300008018EF540F2490D43440D4FF30040BD5
:10003300EF24BFB41A0050032461FFE51A600215D0
:100043001A051DE51D7002051C30070D780AE475BD
:10005300F0011203E3EF0203D10204927403D20707
:100063008003E4C207F5198B0A8A0B890CE4F51A9D
:10007300F51CF51DE51A60077F2012003E80F5751B
:100083001BFFC201C200C202C203C205C206C208EC
:1000930012000CFF700D3007057F0012004FAF1DDB
:1000A300AE1C22B4255FC2D5C20412000CFF24D0BB
:1000B300B40A00501A75F00A781A30D50508B6FF4D
:1000C3000106C6A426F620D5047002D20380D924E3
:1000D300CFB41A00EF5004C2E5D20402024FD2019A
:1000E30080C6D20080C0D20280BCD2D580BAD205ED
:1000F30080B47F2012003E2002077401B51A00402D
:10010300F1120003FF12003E020077D208D20680EC
:1001130095120003FB120003FA120003F94A4B7015
:100123000679207A037BFF20022EE51A602A7E00DF
:100133008E827583001203A460060EEE651B70F0B9
:10014300C2D5EBC0E0EAC0E0E9C0E0EE120296D00F
:10015300E0F9D0E0FAD0E0FB12035FFF60AAEBC046
:10016300E0EAC0E0E9C0E012003ED0E02401F9D0AB
:10017300E03400FAD0E0FBE51B0460DCD51BD9803A
:10018300877BFF7A027992D202809C791080027970
:1001930008C206C2088008D2D5790A8004790AC247
:1001A300D5E51B047002F51BE4FAFDFEFF12000304
:1001B300FC7B08200113120003FD7B1030000A12A0
:1001C3000003FE120003FF7B20EC3382D592D5504F
:1001D30013C3E43000069FFFE49EFEE42001039D69
:1001E300FDE49CFCE4CBF8C201EC700CCFCECDCC8B
:1001F300E824F8F870F38017C3EF33FFEE33FEED16
:1002030033FDEC33FCEB33FB994002FB0FD8E9EBF6
:10021300300105F8D0E0C448B201C0E00AEC4D4E0D
:100223004F78207B0070C2EAB51B0040BCC0E012CF
:100233000298D0F0D0E0200104C4C0E0C4B201C0F1
:10024300F0120027D0F0D5F0EB0200771203F30190
:100253001453018E5800E54C00E14201924F019A7C
:0F02630044019A4900FA4301A0550184460184E1
:100272004501844703405000E92D00ED2E01102B6B
:1002820000F123010E2003292A00A94800000108D9
:100292003F3F3F00790AA2D5200314300509B91067
:1002A200020404B9080104A2D52006025001042068
:1002B20002689202B51A005034C0E07F2030031960
:1002C2007F30A20272067205500F1202EFC202C202
:1002D20006C205C2087F30800F300503E9C0E01274
:1002E200003E300503D0E0F9D0E0B51ACC30051756
:1002F2007F30B9100C12003E7F583004077F78809F
:1003020003B9080312003E3002057F2D02003E7F32
:10031200202008F87F2B2006F322920280CF286E3D
:10032200756C6C2900D2011200033001F8C2017809
:100332001A30D50108F60200A92D5043495812007F
:10034200032403B405004001E490033B9312002F01
:0D035200743A12002FD203751A0402018EB6
:10037800EF4E6012EF60010EEDBB010B89828A839C
:10038800F0A3DFFCDEFA2289F05007F709DFFCA9A9
:0C039800F022BBFEFCF309DFFCA9F02200
:1003A400BB010CE58229F582E5833AF583E022500E
:1003B40006E92582F8E622BBFE06E92582F8E22258
:0D03C400E58229F582E5833AF583E4932272
:1003D100BB010689828A83F0225002F722BBFE010B
:0203E100F32205
:1003E300FAE6FB0808E6F925F0F618E6CA3AF6221B
:1003F300D083D082F8E4937012740193700DA3A399
:1004030093F8740193F5828883E4737402936860AC
:06041300EFA3A3A380DFAC
:10049200EFB40A07740D12049D740A309811A899DA
:1004A200B8130CC2983098FDA899C298B811F630CA
:0704B20099FDC299F59922A2
:00000001FF
