:10012C008B1A8A1B891CAB1AAA1BA91C1200036010
:10013C0016051CE51C7002051B14F9120003F59939
:08014C003099FDC29980DF2209
:1000D300E4F518F519759850438920758DDDD28E96
:1000E3007E007F107D007B007A007908120052E5C4
:1000F300192401FFE43518FE7C007D0A12001C8CD4
:10010300188D19750848750965750A6C750B6C753A
:100113000C6F750D20E5192430F50E750F0A7B0061
:090123007A00790812012C80B762
:03000000020154A6
:0C015400787FE4F6D8FD75811C0200D312
:10000300BB010689828A83E0225002E722BBFE02FB
:09001300E32289828A83E493222E
:10001C00C2D5EC30E709B2D5E4C39DFDE49CFCEEFF
:10002C0030E715B2D5E4C39FFFE49EFE12007EC3F9
:10003C00E49DFDE49CFC800312007E30D507C3E4F4
:06004C009FFFE49EFE226E
:10005200EF4E6012EF60010EEDBB010B89828A83C5
:10006200F0A3DFFCDEFA2289F05007F709DFFCA9D2
:0C007200F022BBFEFCF309DFFCA9F02229
:10007E00BC000BBE0029EF8DF084FFADF022E4CC66
:10008E00F875F008EF2FFFEE33FEEC33FCEE9DEC2F
:10009E00984005FCEE9DFE0FD5F0E9E4CEFD22ED75
:1000AE00F8F5F0EE8420D21CFEADF075F008EF2FBF
:1000BE00FFED33FD4007985006D5F0F222C398FDB0
:0500CE000FD5F0EA224D
:00000001FF
