:03000000020003F8
:0C000300787FE4F6D8FD75811E02004AEB
:1000B40009083F065B4F666D7D077F081400010247
:1000C4000304050607011D0102120000011C0001C2
:0200D400110019
:0E00E900E4F5937594FFF595759608C2A32271
:0400D700EF4E600D7B
:0B00DB00751E19D51EFDEF1F70F21EF0
:0300E60080EF2286
:0C00F7007F057E347DC3DDFEDEFCDFFAF9
:0101030022D9
:0701040020B202D322C32246
:10008F001200E9120104500B0511E5119408400309
:10009F00E4F511C2A375A00174092511F8E6F580E6
:0500AF001200F780DEE5
:10000F0002008FE493A3F8E493A34003F68001F278
:10001F0008DFF48029E493A3F85407240CC8C333F2
:10002F00C4540F4420C8834004F456800146F6DFC1
:10003F00E4800B01020408102040809000B4E47E9D
:10004F00019360BCA3FF543F30E509541FFEE493B6
:10005F00A360010ECF54C025E060A840B8E493A37D
:10006F00FAE493A3F8E493A3C8C582C8CAC583CAA8
:10007F00F0A3C8C582C8CAC583CADFE9DEE780BE60
:0100D6000029
:00000001FF
