:03000000020003F8
:0C000300787FE4F6D8FD75811B02004AEE
:1000B70009083F065B4F666D7D077F081100010247
:0800C7000304050607011900FE
:0E00E800E4F5937594FFF595759608C2A32272
:0400D000EF4E60137C
:1000D400751A02751BEFD51BFDD51AFAEF1F70ECCC
:0100E4001EFD
:0300E50080E9228D
:10008F001200E8C2A3E4F5808511A074082519F8C1
:10009F00E6F5807F0A7E001200D00519E519D3948A
:0800AF000840E0E4F51980DBD4
:10000F0002008FE493A3F8E493A34003F68001F278
:10001F0008DFF48029E493A3F85407240CC8C333F2
:10002F00C4540F4420C8834004F456800146F6DFC1
:10003F00E4800B01020408102040809000B7E47E9A
:10004F00019360BCA3FF543F30E509541FFEE493B6
:10005F00A360010ECF54C025E060A840B8E493A37D
:10006F00FAE493A3F8E493A3C8C582C8CAC583CAA8
:10007F00F0A3C8C582C8CAC583CADFE9DEE780BE60
:0100CF000030
:00000001FF

