:03000000020003F8
:0C000300787FE4F6D8FD75811D02004AEC
:1000E40009083F065B4F666D7D077F081300010218
:0F00F4000304050607011C0102110000011B0097
:0E011600E4F5937594FFF595759608C2A32243
:04010400EF4E600D4D
:0B010800751D19D51DFDEF1F70F21EC4
:0301130080EF2258
:10008F00120116C2A3E4F51B7413251BF8E6F5A0A5
:10009F007409251BF8E6F5807F017E001201040527
:1000AF001BE51BC3940840E00512E5127002051111
:1000BF00D2A3851C807F017E00120104E51CB48051
:1000CF0005751C018006E51C25E0F51CE4F511F50E
:0500DF0012F58080AE67
:10000F0002008FE493A3F8E493A34003F68001F278
:10001F0008DFF48029E493A3F85407240CC8C333F2
:10002F00C4540F4420C8834004F456800146F6DFC1
:10003F00E4800B01020408102040809000E4E47E6D
:10004F00019360BCA3FF543F30E509541FFEE493B6
:10005F00A360010ECF54C025E060A840B8E493A37D
:10006F00FAE493A3F8E493A3C8C582C8CAC583CAA8
:10007F00F0A3C8C582C8CAC583CADFE9DEE780BE60
:0101030000FB
:00000001FF

