:1000E7008B1A8A1B891CAB1AAA1BA91C1200036056
:1000F70016051CE51C7002051B14F9120003F5997F
:080107003099FDC29980DF224E
:10010F00750848750965750A6C750B6C750C6F75FC
:10011F000D207C007D0A12001CED2430F50E750FAA
:02012F000A22A2
:1000A700E4F518F519759850438920758DDDD28EC2
:1000B700438901758A10758C10D28C308DFDC28DE5
:1000C700758A10758C100519E519AE187002051898
:1000D70014FF12010F7B007A0079081200E780DB1A
:03000000020131C9
:0C013100787FE4F6D8FD75811C0200A761
:10000300BB010689828A83E0225002E722BBFE02FB
:09001300E32289828A83E493222E
:10001C00C2D5EC30E709B2D5E4C39DFDE49CFCEEFF
:10002C0030E715B2D5E4C39FFFE49EFE120052C325
:10003C00E49DFDE49CFC800312005230D507C3E420
:06004C009FFFE49EFE226E
:10005200BC000BBE0029EF8DF084FFADF022E4CC92
:10006200F875F008EF2FFFEE33FEEC33FCEE9DEC5B
:10007200984005FCEE9DFE0FD5F0E9E4CEFD22EDA1
:10008200F8F5F0EE8420D21CFEADF075F008EF2FEB
:10009200FFED33FD4007985006D5F0F222C398FDDC
:0500A2000FD5F0EA2279
:00000001FF
