:0A0C960048656C6C6F2025640A00AD
:100C3B008B0A8A0B890CAB0AAA0BA90C120B5C60F2
:100C4B0016050CE50C7002050B14F9120B5CF599EB
:080C5B003099FDC29980DF22EF
:100BEA00E4F508F509759850438920758DDDD28E94
:100BFA00438901758A10758C10D28C308DFDC28D97
:100C0A00758A10758C10750DFF750E0C750F96058B
:100C1A0009E5098508107002050814F5117B007AA8
:100C2A0000792212085C7B007A007922120C3B8040
:010C3A00CAEF
:03000000020C8A65
:0C0C8A00787FE4F6D8FD758131020BEA9A
:100B5C00BB010689828A83E0225002E722BBFE0297
:090B6C00E32289828A83E49322CA
:10080000E519240DF8E6051922780A300702780D5B
:10081000E475F001120BB4020B5C2000EB7F2ED2CA
:10082000008018EF540F2490D43440D4FF30040BD0
:10083000EF24BFB41A0050032461FFE51A600215CB
:100840001A051DE51D7002051C30070D780AE475B8
:10085000F001120BB4EF020BA2020C637403D20777
:100860008003E4C207F5198B0A8A0B890CE4F51A98
:10087000F51CF51DE51A60077F2012083B80F57511
:100880001BFFC201C200C202C203C205C206C208E7
:10089000120809FF700D3007057F0012084CAF1DCC
:1008A000AE1C22B4255FC2D5C204120809FF24D0B1
:1008B000B40A00501A75F00A781A30D50508B6FF48
:1008C0000106C6A426F620D5047002D20380D924DE
:1008D000CFB41A00EF5004C2E5D204020A4CD20190
:1008E00080C6D20080C0D20280BCD2D580BAD205E8
:1008F00080B47F2012083B2002077401B51A004023
:10090000F1120800FF12083B020874D208D20680D8
:1009100095120800FB120800FA120800F94A4B7001
:1009200006791D7A0B7BFF20022EE51A602A7E00D5
:100930008E82758300120B7560060EEE651B70F0DB
:10094000C2D5EBC0E0EAC0E0E9C0E0EE120A93D005
:10095000E0F9D0E0FAD0E0FB120B5CFF60AAEBC03C
:10096000E0EAC0E0E9C0E012083BD0E02401F9D0A1
:10097000E03400FAD0E0FBE51B0460DCD51BD98035
:10098000877BFF7A0A798FD202809C791080027966
:1009900008C206C2088008D2D5790A8004790AC242
:1009A000D5E51B047002F51BE4FAFDFEFF120800FA
:1009B000FC7B08200113120800FD7B1030000A1296
:1009C0000800FE120800FF7B20EC3382D592D55040
:1009D00013C3E43000069FFFE49EFEE42001039D64
:1009E000FDE49CFCE4CBF8C201EC700CCFCECDCC86
:1009F000E824F8F870F38017C3EF33FFEE33FEED11
:100A000033FDEC33FCEB33FB994002FB0FD8E9EBF1
:100A1000300105F8D0E0C448B201C0E00AEC4D4E08
:100A20004F78207B0070C2EAB51B0040BCC0E012CA
:100A30000A95D0F0D0E0200104C4C0E0C4B201C0E7
:100A4000F0120824D0F0D5F0EB020874120BC409A0
:100A50001153098B5808E24C08DE42098F4F099761
:0F0A60004409974908F743099D550981460981C3
:100A6F00450981470B3D5008E62D08EA2E090D2B4D
:100A7F0008EE23090B200B262A08A64800000905BB
:100A8F003F3F3F00790AA2D5200314300509B91062
:100A9F00020404B9080104A2D52006025001042063
:100AAF0002689202B51A005034C0E07F203003195B
:100ABF007F30A20272067205500F120AECC202C2F8
:100ACF0006C205C2087F30800F300503E9C0E0126F
:100ADF00083B300503D0E0F9D0E0B51ACC3005174C
:100AEF007F30B9100C12083B7F583004077F788095
:100AFF0003B9080312083B3002057F2D02083B7F24
:100B0F00202008F87F2B2006F322920280CF286E38
:100B1F00756C6C2900D2011208003001F8C20178FF
:100B2F001A30D50108F60208A62D5043495812086D
:100B3F00002403B405004001E4900B389312082CF5
:0D0B4F00743A12082CD203751A0402098BA7
:100B7500BB010CE58229F582E5833AF583E0225035
:100B850006E92582F8E622BBFE06E92582F8E2227F
:0D0B9500E58229F582E5833AF583E4932299
:100BA200BB010689828A83F0225002F722BBFE0132
:020BB200F3222C
:100BB400FAE6FB0808E6F925F0F618E6CA3AF62242
:100BC400D083D082F8E4937012740193700DA3A3C0
:100BD40093F8740193F5828883E4737402936860D4
:060BE400EFA3A3A380DFD4
:100C6300EFB40A07740D120C6E740A309811A89928
:100C7300B8130CC2983098FDA899C298B811F630F1
:070C830099FDC299F59922C9
:00000001FF
