:1000000075D0007436941285D020F52175D0807497
:100010005694E285D022F52375D0807432942E85D3
:10002000D024F52575D08074C8947385D026F52723
:1000300075D080747094F085D028F52975D08074BF
:0A0040005094C485D02AF52B80FEF1
:10060000100000071001008B10020000100300C44E
:1006100010040048100500001006002C0020000007
:1006200000210024002200810023007300240040E8
:10063000002500030026000500270054002800C103
:100640000029007F002A00C4002B008B2FFF000030
:00000001FF
