:100000007803747428F54075D0807803747438F5DB
:100010004175203474742520F54275D080752034E4
:1000200074743520F54374562438F54475D08074C3
:10003000563438F5457520347920743727F54675E0
:10004000D0807520347920743737F54775D0007526
:0B00500020347920743737F54880FE1B
:10060000100000071001006B100200001003000131
:1006100010040059100500001006003620000003E9
:10062000200100200040007700410078004200A82F
:10063000004300A90044008E0045008F0046006B77
:0C0640000047006C0048006B2FFF00001A
:00000001FF
