:0A052F0048656C6C6F2025640A001B
:0400030002220000D5
:1004C5008B388A39893AAB38AA39A93A12036A6056
:1004D50016053AE53A7002053914F912036AF599D9
:0804E5003099FDC29980DF226D
:03000B0002048468
:10048400C0E0C0F0C083C082C0D075D008753BFF07
:10049400753C05753D2F0523E52385223E70020535
:1004A4002214F53F7B007A00792412006A7B007ADB
:1004B4000079241204C5D0D0D082D083D0F0D0E00B
:0104C4003205
:10051400759850438920758DDDD28ED2A9D2AF4310
:0B0524008901E4F58AF58CD28C80FE82
:030000000203F800
:0C03F800787FE4F6D8FD75814B02043FCD
:10036A00BB010689828A83E0225002E722BBFE0291
:09037A00E32289828A83E49322C4
:10000E00E547243BF8E60547227838300702783B6F
:10001E00E475F0011203C202036A2000EB7F2ED2B8
:10002E00008018EF540F2490D43440D4FF30040BCA
:10003E00EF24BFB41A0050032461FFE54860021597
:10004E0048054BE54B7002054A30070D7838E475CC
:10005E00F0011203C2EF0203B00204ED7403D207E3
:10006E008003E4C207F5478B388A39893AE4F548AC
:10007E00F54AF54BE54860077F2012004980F5757B
:10008E0049FFC201C200C202C203C205C206C208B3
:10009E00120017FF700D3007057F0012005AAF4B8C
:1000AE00AE4A22B4255FC2D5C204120017FF24D077
:1000BE00B40A00501A75F00A784830D50508B6FF14
:1000CE000106C6A426F620D5047002D20380D924D8
:1000DE00CFB41A00EF5004C2E5D20402025AD20184
:1000EE0080C6D20080C0D20280BCD2D580BAD205E2
:1000FE0080B47F201200492002077401B5480040E9
:10010E00F112000EFF120049020082D208D20680C0
:10011E009512000EFB12000EFA12000EF94A4B70E9
:10012E0006792B7A037BFF20022EE548602A7E009B
:10013E008E8275830012038360060EEE654970F0A1
:10014E00C2D5EBC0E0EAC0E0E9C0E0EE1202A1D0F9
:10015E00E0F9D0E0FAD0E0FB12036AFF60AAEBC030
:10016E00E0EAC0E0E9C0E0120049D0E02401F9D095
:10017E00E03400FAD0E0FBE5490460DCD549D980D3
:10018E00877BFF7A02799DD202809C79108002795A
:10019E0008C206C2088008D2D5790A8004790AC23C
:1001AE00D5E549047002F549E4FAFDFEFF12000E92
:1001BE00FC7B0820011312000EFD7B1030000A128A
:1001CE00000EFE12000EFF7B20EC3382D592D5502E
:1001DE0013C3E43000069FFFE49EFEE42001039D5E
:1001EE00FDE49CFCE4CBF8C201EC700CCFCECDCC80
:1001FE00E824F8F870F38017C3EF33FFEE33FEED0B
:10020E0033FDEC33FCEB33FB994002FB0FD8E9EBEB
:10021E00300105F8D0E0C448B201C0E00AEC4D4E02
:10022E004F78207B0070C2EAB5490040BCC0E01296
:10023E0002A3D0F0D0E0200104C4C0E0C4B201C0DB
:10024E00F0120032D0F0D5F0EB0200821203D20190
:10025E001F5301995800F04C00EC42019D4F01A52F
:0F026E004401A54901054301AB55018F46018F9E
:10027D0045018F47034B5000F42D00F82E011B2B29
:10028D0000FC2301192003342A00B4480000011397
:10029D003F3F3F00790AA2D5200314300509B9105C
:1002AD00020404B9080104A2D5200602500104205D
:1002BD0002689202B548005034C0E07F2030031927
:1002CD007F30A20272067205500F1202FAC202C2EC
:1002DD0006C205C2087F30800F300503E9C0E01269
:1002ED000049300503D0E0F9D0E0B548CC30051712
:1002FD007F30B9100C1200497F583004077F788089
:10030D0003B908031200493002057F2D0200497F11
:10031D00202008F87F2B2006F322920280CF286E32
:10032D00756C6C2900D20112000E3001F8C20178F3
:10033D004830D50108F60200B42D5043495812003B
:10034D000E2403B405004001E49003469312003AD5
:0D035D00743A12003AD20375480402019967
:10040400020514E493A3F8E493A34003F68001F2F5
:1004140008DFF48029E493A3F85407240CC8C333F9
:10042400C4540F4420C8834004F456800146F6DFC8
:10043400E4800B0102040810204080900003E47E55
:10044400019360BCA3FF543F30E509541FFEE493BD
:10045400A360010ECF54C025E060A840B8E493A384
:10046400FAE493A3F8E493A3C8C582C8CAC583CAAF
:10047400F0A3C8C582C8CAC583CADFE9DEE780BE67
:0100070000F8
:10038300BB010CE58229F582E5833AF583E022502F
:1003930006E92582F8E622BBFE06E92582F8E22279
:0D03A300E58229F582E5833AF583E4932293
:1003B000BB010689828A83F0225002F722BBFE012C
:0203C000F32226
:1003C200FAE6FB0808E6F925F0F618E6CA3AF6223C
:1003D200D083D082F8E4937012740193700DA3A3BA
:1003E20093F8740193F5828883E4737402936860CE
:0603F200EFA3A3A380DFCE
:1004ED00EFB40A07740D1204F8740A309811A89924
:1004FD00B8130CC2983098FDA899C298B811F6306F
:07050D0099FDC299F5992246
:00000001FF
