:0400030002100000E7
:10016E008B268A278928AB26AA27A92812000E607B
:10017E00160528E5287002052714F912000EF599C8
:08018E003099FDC29980DF22C7
:1001960075124875136575146C75156C75166F7543
:1001A60017207C007D0A120027ED2430F5187519FA
:0201B6000A221B
:03000B0002013EB1
:10013E00C0E0C0F0C083C082C0D075D0080511E504
:10014E0011AE107002051014FF1201967B007A009A
:10015E00791212016ED0D0D082D083D0F0D0E0329E
:1001B800759850438920758DDDD28ED2A9D2AF4370
:0B01C8008901E4F58AF58CD28C80FEE2
:030000000200B249
:0C00B200787FE4F6D8FD7581280200F983
:10000E00BB010689828A83E0225002E722BBFE02F0
:09001E00E32289828A83E4932223
:10002700C2D5EC30E709B2D5E4C39DFDE49CFCEEF4
:1000370030E715B2D5E4C39FFFE49EFE12005DC30F
:10004700E49DFDE49CFC800312005D30D507C3E40A
:060057009FFFE49EFE2263
:1000BE000201B8E493A3F8E493A34003F68001F29F
:1000CE0008DFF48029E493A3F85407240CC8C33343
:1000DE00C4540F4420C8834004F456800146F6DF12
:1000EE00E4800B0102040810204080900003E47E9F
:1000FE00019360BCA3FF543F30E509541FFEE49307
:10010E00A360010ECF54C025E060A840B8E493A3CD
:10011E00FAE493A3F8E493A3C8C582C8CAC583CAF8
:10012E00F0A3C8C582C8CAC583CADFE9DEE780BEB0
:0100070000F8
:10005D00BC000BBE0029EF8DF084FFADF022E4CC87
:10006D00F875F008EF2FFFEE33FEEC33FCEE9DEC50
:10007D00984005FCEE9DFE0FD5F0E9E4CEFD22ED96
:10008D00F8F5F0EE8420D21CFEADF075F008EF2FE0
:10009D00FFED33FD4007985006D5F0F222C398FDD1
:0500AD000FD5F0EA226E
:00000001FF
